{
  "contractName": "PaymentSplitter",
  "abi": [
    {
      "inputs": [],
      "stateMutability": "nonpayable",
      "type": "constructor"
    },
    {
      "anonymous": false,
      "inputs": [
        {
          "indexed": false,
          "internalType": "address",
          "name": "account",
          "type": "address"
        }
      ],
      "name": "PayeeAdded",
      "type": "event"
    },
    {
      "anonymous": false,
      "inputs": [
        {
          "indexed": false,
          "internalType": "address",
          "name": "from",
          "type": "address"
        },
        {
          "indexed": false,
          "internalType": "uint256",
          "name": "amount",
          "type": "uint256"
        }
      ],
      "name": "PaymentReceived",
      "type": "event"
    },
    {
      "anonymous": false,
      "inputs": [
        {
          "indexed": false,
          "internalType": "address",
          "name": "to",
          "type": "address"
        },
        {
          "indexed": false,
          "internalType": "uint256",
          "name": "amount",
          "type": "uint256"
        }
      ],
      "name": "PaymentReleased",
      "type": "event"
    },
    {
      "inputs": [],
      "name": "owner",
      "outputs": [
        {
          "internalType": "address",
          "name": "",
          "type": "address"
        }
      ],
      "stateMutability": "view",
      "type": "function"
    },
    {
      "stateMutability": "payable",
      "type": "receive"
    },
    {
      "inputs": [],
      "name": "distribute",
      "outputs": [],
      "stateMutability": "payable",
      "type": "function"
    },
    {
      "inputs": [],
      "name": "totalAmountAvailable",
      "outputs": [
        {
          "internalType": "uint256",
          "name": "",
          "type": "uint256"
        }
      ],
      "stateMutability": "view",
      "type": "function"
    },
    {
      "inputs": [],
      "name": "allPayees",
      "outputs": [
        {
          "internalType": "address[]",
          "name": "",
          "type": "address[]"
        }
      ],
      "stateMutability": "view",
      "type": "function"
    },
    {
      "inputs": [
        {
          "internalType": "address",
          "name": "account",
          "type": "address"
        }
      ],
      "name": "_addPayee",
      "outputs": [],
      "stateMutability": "nonpayable",
      "type": "function"
    },
    {
      "inputs": [],
      "name": "sendEthers",
      "outputs": [],
      "stateMutability": "payable",
      "type": "function"
    }
  ],
  "bytecode": "0x608060405234801561001057600080fd5b5033600560006101000a81548173ffffffffffffffffffffffffffffffffffffffff021916908373ffffffffffffffffffffffffffffffffffffffff160217905550610ac1806100616000396000f3fe6080604052600436106100595760003560e01c80630783cda71461009e578063230d0b4d146100a857806369feaae2146100d35780638da5cb5b146100fc578063dc87b8ea14610127578063e4fc6b6d1461015257610099565b36610099577f6ef95f06320e7a25a04a175ca677b7052bdd97131872c2192525a629f51be770333460405161008f929190610802565b60405180910390a1005b600080fd5b6100a661015c565b005b3480156100b457600080fd5b506100bd6101d8565b6040516100ca919061082b565b60405180910390f35b3480156100df57600080fd5b506100fa60048036038101906100f591906106db565b610266565b005b34801561010857600080fd5b50610111610303565b60405161011e91906107e7565b60405180910390f35b34801561013357600080fd5b5061013c610329565b604051610149919061086d565b60405180910390f35b61015a610331565b005b60003073ffffffffffffffffffffffffffffffffffffffff166108fc349081150290604051600060405180830381858888f193505050509050806101d5576040517f08c379a00000000000000000000000000000000000000000000000000000000081526004016101cc9061084d565b60405180910390fd5b50565b6060600480548060200260200160405190810160405280929190818152602001828054801561025c57602002820191906000526020600020905b8160009054906101000a900473ffffffffffffffffffffffffffffffffffffffff1673ffffffffffffffffffffffffffffffffffffffff1681526020019060010190808311610212575b5050505050905090565b6004819080600181540180825580915050600190039060005260206000200160009091909190916101000a81548173ffffffffffffffffffffffffffffffffffffffff021916908373ffffffffffffffffffffffffffffffffffffffff1602179055507fe50d60c97c4d4d49c3d404d841de6d02f67b7fef95765960ece08d9cf438fd72816040516102f891906107e7565b60405180910390a150565b600560009054906101000a900473ffffffffffffffffffffffffffffffffffffffff1681565b600047905090565b6000479050600061035f606461035160508561063090919063ffffffff16565b61067590919063ffffffff16565b90506000600560009054906101000a900473ffffffffffffffffffffffffffffffffffffffff1673ffffffffffffffffffffffffffffffffffffffff166108fc839081150290604051600060405180830381858888f193505050509050806103fc576040517f08c379a00000000000000000000000000000000000000000000000000000000081526004016103f39061084d565b60405180910390fd5b7fdf20fd1e76bc69d672e4814fafb2c449bba3a5369d8359adf9e05e6fde87b056600560009054906101000a900473ffffffffffffffffffffffffffffffffffffffff168360405161044f929190610802565b60405180910390a1600061046c838561069d90919063ffffffff16565b905060006104886004805490508361067590919063ffffffff16565b905060005b600480549050811015610628576000600482815481106104d6577f4e487b7100000000000000000000000000000000000000000000000000000000600052603260045260246000fd5b9060005260206000200160009054906101000a900473ffffffffffffffffffffffffffffffffffffffff1673ffffffffffffffffffffffffffffffffffffffff166108fc849081150290604051600060405180830381858888f19350505050905080610577576040517f08c379a000000000000000000000000000000000000000000000000000000000815260040161056e9061084d565b60405180910390fd5b7fdf20fd1e76bc69d672e4814fafb2c449bba3a5369d8359adf9e05e6fde87b056600483815481106105d2577f4e487b7100000000000000000000000000000000000000000000000000000000600052603260045260246000fd5b9060005260206000200160009054906101000a900473ffffffffffffffffffffffffffffffffffffffff168460405161060c929190610802565b60405180910390a1508080610620906109cd565b91505061048d565b505050505050565b600080831415610643576000905061066f565b600082846106519190610903565b905082848261066091906108d2565b1461066a57600080fd5b809150505b92915050565b600080821161068357600080fd5b6000828461069191906108d2565b90508091505092915050565b6000828211156106ac57600080fd5b600082846106ba919061095d565b90508091505092915050565b6000813590506106d581610a74565b92915050565b6000602082840312156106ed57600080fd5b60006106fb848285016106c6565b91505092915050565b6000610710838361071c565b60208301905092915050565b61072581610991565b82525050565b61073481610991565b82525050565b600061074582610898565b61074f81856108b0565b935061075a83610888565b8060005b8381101561078b5781516107728882610704565b975061077d836108a3565b92505060018101905061075e565b5085935050505092915050565b60006107a56014836108c1565b91507f4661696c656420746f2073656e642045746865720000000000000000000000006000830152602082019050919050565b6107e1816109c3565b82525050565b60006020820190506107fc600083018461072b565b92915050565b6000604082019050610817600083018561072b565b61082460208301846107d8565b9392505050565b60006020820190508181036000830152610845818461073a565b905092915050565b6000602082019050818103600083015261086681610798565b9050919050565b600060208201905061088260008301846107d8565b92915050565b6000819050602082019050919050565b600081519050919050565b6000602082019050919050565b600082825260208201905092915050565b600082825260208201905092915050565b60006108dd826109c3565b91506108e8836109c3565b9250826108f8576108f7610a45565b5b828204905092915050565b600061090e826109c3565b9150610919836109c3565b9250817fffffffffffffffffffffffffffffffffffffffffffffffffffffffffffffffff048311821515161561095257610951610a16565b5b828202905092915050565b6000610968826109c3565b9150610973836109c3565b92508282101561098657610985610a16565b5b828203905092915050565b600061099c826109a3565b9050919050565b600073ffffffffffffffffffffffffffffffffffffffff82169050919050565b6000819050919050565b60006109d8826109c3565b91507fffffffffffffffffffffffffffffffffffffffffffffffffffffffffffffffff821415610a0b57610a0a610a16565b5b600182019050919050565b7f4e487b7100000000000000000000000000000000000000000000000000000000600052601160045260246000fd5b7f4e487b7100000000000000000000000000000000000000000000000000000000600052601260045260246000fd5b610a7d81610991565b8114610a8857600080fd5b5056fea26469706673582212202ea4fba0108dfcab0480d57ada78a152b8616466475e0d41881b13ee5010af1464736f6c63430008000033",
  "immutableReferences": {},
  "source": "// SPDX-License-Identifier: MIT\r\npragma solidity ^0.8.0;\r\n\r\ncontract PaymentSplitter {\r\n    event PayeeAdded(address account);\r\n    event PaymentReleased(address to, uint256 amount);\r\n    event PaymentReceived(address from, uint256 amount);\r\n\r\n    uint256 private _totalShares;\r\n    uint256 private _totalReleased;\r\n\r\n    mapping(address => uint256) private _shares;\r\n    mapping(address => uint256) private _released;\r\n    address[] private _payees;\r\n    address public owner;\r\n\r\n    using SafeMath for uint256;\r\n\r\n    constructor()  {\r\n        owner = msg.sender;\r\n    }\r\n\r\n    receive() external payable virtual {\r\n        emit PaymentReceived(msg.sender, msg.value);\r\n    }\r\n    \r\n    function distribute() public payable {\r\n        \r\n        uint256 totalamount =  address(this).balance;\r\n        \r\n        // pay owner\r\n        uint256 ownersCut =  totalamount.mul(80).div(100) ;     \r\n        bool sentOwner = payable(owner).send(ownersCut);\r\n        require(sentOwner, \"Failed to send Ether\");\r\n        emit PaymentReleased(owner, ownersCut);\r\n        \r\n        // pay all payees\r\n        uint remaing = totalamount.sub(ownersCut);\r\n        uint remaingForEach = remaing.div(_payees.length);\r\n              \r\n        for (uint256 i = 0; i < _payees.length; i++) {\r\n            bool sentPayee = payable(_payees[i]).send(remaingForEach);\r\n            require(sentPayee, \"Failed to send Ether\");\r\n            emit PaymentReleased(_payees[i], remaingForEach);\r\n          }\r\n        \r\n    }\r\n\r\n    function totalAmountAvailable() public view returns(uint256) {\r\n    return  address(this).balance;\r\n        \r\n    }\r\n  \r\n\r\n    function allPayees() public view returns (address[] memory){\r\n        return _payees;\r\n    }\r\n\r\n\r\n    function _addPayee(address account) public {\r\n        _payees.push(account);\r\n        emit PayeeAdded(account);\r\n    }\r\n    \r\n    function sendEthers() public payable {\r\n        bool sent = payable(address(this)).send(msg.value);\r\n        require(sent, \"Failed to send Ether\");\r\n    }\r\n}\r\n\r\n\r\n\r\nlibrary SafeMath {\r\n\r\n  function mul(uint256 a, uint256 b) internal pure returns (uint256) {\r\n    if (a == 0) {\r\n      return 0;\r\n    }\r\n\r\n    uint256 c = a * b;\r\n    require(c / a == b);\r\n\r\n    return c;\r\n  }\r\n\r\n  function div(uint256 a, uint256 b) internal pure returns (uint256) {\r\n    require(b > 0); // Solidity only automatically asserts when dividing by 0\r\n    uint256 c = a / b;\r\n    // assert(a == b * c + a % b); // There is no case in which this doesn't hold\r\n\r\n    return c;\r\n  }\r\n\r\n  function sub(uint256 a, uint256 b) internal pure returns (uint256) {\r\n    require(b <= a);\r\n    uint256 c = a - b;\r\n\r\n    return c;\r\n  }\r\n\r\n  function add(uint256 a, uint256 b) internal pure returns (uint256) {\r\n    uint256 c = a + b;\r\n    require(c >= a);\r\n\r\n    return c;\r\n  }\r\n\r\n  function mod(uint256 a, uint256 b) internal pure returns (uint256) {\r\n    require(b != 0);\r\n    return a % b;\r\n  }\r\n}\r\n",
  "sourcePath": "F:\\PIAIC\\Bootcamp2021\\New folder\\paymentSpliter\\contracts\\payment.sol",
  "compiler": {
    "name": "solc",
    "version": "0.8.0+commit.c7dfd78e.Emscripten.clang"
  },
  "schemaVersion": "3.4.3",
  "updatedAt": "2021-09-16T04:33:13.075Z",
  "devdoc": {
    "kind": "dev",
    "methods": {},
    "version": 1
  },
  "userdoc": {
    "kind": "user",
    "methods": {},
    "version": 1
  }
}